{
  "_format": "hh-sol-artifact-1",
  "contractName": "ESIM",
  "sourceName": "contracts/SimCard.sol",
  "abi": [
    {
      "anonymous": false,
      "inputs": [
        {
          "indexed": true,
          "internalType": "address",
          "name": "userAddress",
          "type": "address"
        },
        {
          "indexed": false,
          "internalType": "string",
          "name": "simNumber",
          "type": "string"
        }
      ],
      "name": "UserRegistered",
      "type": "event"
    },
    {
      "anonymous": false,
      "inputs": [
        {
          "indexed": true,
          "internalType": "address",
          "name": "userAddress",
          "type": "address"
        },
        {
          "indexed": false,
          "internalType": "string",
          "name": "name",
          "type": "string"
        },
        {
          "indexed": false,
          "internalType": "string",
          "name": "email",
          "type": "string"
        }
      ],
      "name": "UserUpdated",
      "type": "event"
    },
    {
      "inputs": [
        {
          "internalType": "string",
          "name": "_simNumber",
          "type": "string"
        }
      ],
      "name": "getUserDetails",
      "outputs": [
        {
          "internalType": "string",
          "name": "",
          "type": "string"
        },
        {
          "internalType": "string",
          "name": "",
          "type": "string"
        },
        {
          "internalType": "bool",
          "name": "",
          "type": "bool"
        }
      ],
      "stateMutability": "view",
      "type": "function"
    },
    {
      "inputs": [
        {
          "internalType": "string",
          "name": "_name",
          "type": "string"
        },
        {
          "internalType": "string",
          "name": "_email",
          "type": "string"
        }
      ],
      "name": "registerUser",
      "outputs": [],
      "stateMutability": "nonpayable",
      "type": "function"
    },
    {
      "inputs": [
        {
          "internalType": "string",
          "name": "",
          "type": "string"
        }
      ],
      "name": "simToAddress",
      "outputs": [
        {
          "internalType": "address",
          "name": "",
          "type": "address"
        }
      ],
      "stateMutability": "view",
      "type": "function"
    },
    {
      "inputs": [
        {
          "internalType": "string",
          "name": "_name",
          "type": "string"
        },
        {
          "internalType": "string",
          "name": "_email",
          "type": "string"
        }
      ],
      "name": "updateUser",
      "outputs": [],
      "stateMutability": "nonpayable",
      "type": "function"
    },
    {
      "inputs": [
        {
          "internalType": "address",
          "name": "",
          "type": "address"
        }
      ],
      "name": "users",
      "outputs": [
        {
          "internalType": "string",
          "name": "name",
          "type": "string"
        },
        {
          "internalType": "string",
          "name": "email",
          "type": "string"
        },
        {
          "internalType": "string",
          "name": "simNumber",
          "type": "string"
        },
        {
          "internalType": "bool",
          "name": "isRegistered",
          "type": "bool"
        }
      ],
      "stateMutability": "view",
      "type": "function"
    }
  ],
  "bytecode": "0x608060405234801561001057600080fd5b506113ba806100206000396000f3fe608060405234801561001057600080fd5b50600436106100575760003560e01c8063085ba0741461005c5780631d2e4afd1461008e578063a87430ba146100aa578063b97290e5146100dd578063dd4a24251461010d575b600080fd5b61007660048036038101906100719190610cde565b610129565b60405161008593929190610f16565b60405180910390f35b6100a860048036038101906100a39190610d1f565b61039e565b005b6100c460048036038101906100bf9190610cb5565b6105c6565b6040516100d49493929190610f5b565b60405180910390f35b6100f760048036038101906100f29190610cde565b61079b565b6040516101049190610ea2565b60405180910390f35b61012760048036038101906101229190610d1f565b6107e4565b005b60608060008060018560405161013f9190610e8b565b908152602001604051809103902060009054906101000a900473ffffffffffffffffffffffffffffffffffffffff1690506000808273ffffffffffffffffffffffffffffffffffffffff1673ffffffffffffffffffffffffffffffffffffffff16815260200190815260200160002060030160009054906101000a900460ff166101f35760006040518060200160405280600081525090604051806020016040528060008152509093509350935050610397565b6000808273ffffffffffffffffffffffffffffffffffffffff1673ffffffffffffffffffffffffffffffffffffffff1681526020019081526020016000206000016000808373ffffffffffffffffffffffffffffffffffffffff1673ffffffffffffffffffffffffffffffffffffffff168152602001908152602001600020600101600182805461028390611140565b80601f01602080910402602001604051908101604052809291908181526020018280546102af90611140565b80156102fc5780601f106102d1576101008083540402835291602001916102fc565b820191906000526020600020905b8154815290600101906020018083116102df57829003601f168201915b5050505050925081805461030f90611140565b80601f016020809104026020016040519081016040528092919081815260200182805461033b90611140565b80156103885780601f1061035d57610100808354040283529160200191610388565b820191906000526020600020905b81548152906001019060200180831161036b57829003601f168201915b50505050509150935093509350505b9193909250565b6000803373ffffffffffffffffffffffffffffffffffffffff1673ffffffffffffffffffffffffffffffffffffffff16815260200190815260200160002060030160009054906101000a900460ff161561042d576040517f08c379a000000000000000000000000000000000000000000000000000000000815260040161042490610fd5565b60405180910390fd5b600061043833610972565b90506040518060800160405280848152602001838152602001828152602001600115158152506000803373ffffffffffffffffffffffffffffffffffffffff1673ffffffffffffffffffffffffffffffffffffffff16815260200190815260200160002060008201518160000190805190602001906104b8929190610b95565b5060208201518160010190805190602001906104d5929190610b95565b5060408201518160020190805190602001906104f2929190610b95565b5060608201518160030160006101000a81548160ff021916908315150217905550905050336001826040516105279190610e8b565b908152602001604051809103902060006101000a81548173ffffffffffffffffffffffffffffffffffffffff021916908373ffffffffffffffffffffffffffffffffffffffff1602179055503373ffffffffffffffffffffffffffffffffffffffff167f48cac28ad4dc618e15f4c2dd5e97751182f166de97b25618318b2112aa951a2f826040516105b99190610ebd565b60405180910390a2505050565b60006020528060005260406000206000915090508060000180546105e990611140565b80601f016020809104026020016040519081016040528092919081815260200182805461061590611140565b80156106625780601f1061063757610100808354040283529160200191610662565b820191906000526020600020905b81548152906001019060200180831161064557829003601f168201915b50505050509080600101805461067790611140565b80601f01602080910402602001604051908101604052809291908181526020018280546106a390611140565b80156106f05780601f106106c5576101008083540402835291602001916106f0565b820191906000526020600020905b8154815290600101906020018083116106d357829003601f168201915b50505050509080600201805461070590611140565b80601f016020809104026020016040519081016040528092919081815260200182805461073190611140565b801561077e5780601f106107535761010080835404028352916020019161077e565b820191906000526020600020905b81548152906001019060200180831161076157829003601f168201915b5050505050908060030160009054906101000a900460ff16905084565b6001818051602081018201805184825260208301602085012081835280955050505050506000915054906101000a900473ffffffffffffffffffffffffffffffffffffffff1681565b6000803373ffffffffffffffffffffffffffffffffffffffff1673ffffffffffffffffffffffffffffffffffffffff16815260200190815260200160002060030160009054906101000a900460ff16610872576040517f08c379a000000000000000000000000000000000000000000000000000000000815260040161086990610fb5565b60405180910390fd5b816000803373ffffffffffffffffffffffffffffffffffffffff1673ffffffffffffffffffffffffffffffffffffffff16815260200190815260200160002060000190805190602001906108c7929190610b95565b50806000803373ffffffffffffffffffffffffffffffffffffffff1673ffffffffffffffffffffffffffffffffffffffff168152602001908152602001600020600101908051906020019061091d929190610b95565b503373ffffffffffffffffffffffffffffffffffffffff167fe5d18d6612696bff7df1db8015eac613241613297fa2ba2783993e4fd0e76f3d8383604051610966929190610edf565b60405180910390a25050565b60606000826040516020016109879190610e70565b6040516020818303038152906040528051906020012090506000600a67ffffffffffffffff8111156109e2577f4e487b7100000000000000000000000000000000000000000000000000000000600052604160045260246000fd5b6040519080825280601f01601f191660200182016040528015610a145781602001600182028036833780820191505090505b5090507f300000000000000000000000000000000000000000000000000000000000000081600081518110610a72577f4e487b7100000000000000000000000000000000000000000000000000000000600052603260045260246000fd5b60200101907effffffffffffffffffffffffffffffffffffffffffffffffffffffffffffff1916908160001a9053506000600190505b600a811015610b8a576030600a848360208110610aee577f4e487b7100000000000000000000000000000000000000000000000000000000600052603260045260246000fd5b1a60f81b60f81c60ff16610b029190611210565b610b0c9190611072565b60f81b828281518110610b48577f4e487b7100000000000000000000000000000000000000000000000000000000600052603260045260246000fd5b60200101907effffffffffffffffffffffffffffffffffffffffffffffffffffffffffffff1916908160001a9053508080610b82906111a3565b915050610aa8565b508092505050919050565b828054610ba190611140565b90600052602060002090601f016020900481019282610bc35760008555610c0a565b82601f10610bdc57805160ff1916838001178555610c0a565b82800160010185558215610c0a579182015b82811115610c09578251825591602001919060010190610bee565b5b509050610c179190610c1b565b5090565b5b80821115610c34576000816000905550600101610c1c565b5090565b6000610c4b610c468461101a565b610ff5565b905082815260208101848484011115610c6357600080fd5b610c6e8482856110fe565b509392505050565b600081359050610c858161136d565b92915050565b600082601f830112610c9c57600080fd5b8135610cac848260208601610c38565b91505092915050565b600060208284031215610cc757600080fd5b6000610cd584828501610c76565b91505092915050565b600060208284031215610cf057600080fd5b600082013567ffffffffffffffff811115610d0a57600080fd5b610d1684828501610c8b565b91505092915050565b60008060408385031215610d3257600080fd5b600083013567ffffffffffffffff811115610d4c57600080fd5b610d5885828601610c8b565b925050602083013567ffffffffffffffff811115610d7557600080fd5b610d8185828601610c8b565b9150509250929050565b610d94816110a9565b82525050565b610dab610da6826110a9565b6111ec565b82525050565b610dba816110bb565b82525050565b6000610dcb8261104b565b610dd58185611056565b9350610de581856020860161110d565b610dee816112fd565b840191505092915050565b6000610e048261104b565b610e0e8185611067565b9350610e1e81856020860161110d565b80840191505092915050565b6000610e37601383611056565b9150610e428261131b565b602082019050919050565b6000610e5a601783611056565b9150610e6582611344565b602082019050919050565b6000610e7c8284610d9a565b60148201915081905092915050565b6000610e978284610df9565b915081905092915050565b6000602082019050610eb76000830184610d8b565b92915050565b60006020820190508181036000830152610ed78184610dc0565b905092915050565b60006040820190508181036000830152610ef98185610dc0565b90508181036020830152610f0d8184610dc0565b90509392505050565b60006060820190508181036000830152610f308186610dc0565b90508181036020830152610f448185610dc0565b9050610f536040830184610db1565b949350505050565b60006080820190508181036000830152610f758187610dc0565b90508181036020830152610f898186610dc0565b90508181036040830152610f9d8185610dc0565b9050610fac6060830184610db1565b95945050505050565b60006020820190508181036000830152610fce81610e2a565b9050919050565b60006020820190508181036000830152610fee81610e4d565b9050919050565b6000610fff611010565b905061100b8282611172565b919050565b6000604051905090565b600067ffffffffffffffff821115611035576110346112ce565b5b61103e826112fd565b9050602081019050919050565b600081519050919050565b600082825260208201905092915050565b600081905092915050565b600061107d826110f1565b9150611088836110f1565b92508260ff0382111561109e5761109d611241565b5b828201905092915050565b60006110b4826110c7565b9050919050565b60008115159050919050565b600073ffffffffffffffffffffffffffffffffffffffff82169050919050565b6000819050919050565b600060ff82169050919050565b82818337600083830152505050565b60005b8381101561112b578082015181840152602081019050611110565b8381111561113a576000848401525b50505050565b6000600282049050600182168061115857607f821691505b6020821081141561116c5761116b61129f565b5b50919050565b61117b826112fd565b810181811067ffffffffffffffff8211171561119a576111996112ce565b5b80604052505050565b60006111ae826110e7565b91507fffffffffffffffffffffffffffffffffffffffffffffffffffffffffffffffff8214156111e1576111e0611241565b5b600182019050919050565b60006111f7826111fe565b9050919050565b60006112098261130e565b9050919050565b600061121b826110e7565b9150611226836110e7565b92508261123657611235611270565b5b828206905092915050565b7f4e487b7100000000000000000000000000000000000000000000000000000000600052601160045260246000fd5b7f4e487b7100000000000000000000000000000000000000000000000000000000600052601260045260246000fd5b7f4e487b7100000000000000000000000000000000000000000000000000000000600052602260045260246000fd5b7f4e487b7100000000000000000000000000000000000000000000000000000000600052604160045260246000fd5b6000601f19601f8301169050919050565b60008160601b9050919050565b7f55736572206e6f74207265676973746572656400000000000000000000000000600082015250565b7f5573657220616c72656164792072656769737465726564000000000000000000600082015250565b611376816110a9565b811461138157600080fd5b5056fea264697066735822122058470b6863e8ecd185e3cbe13baf89525d69d1bf857dc13cdaacabbf7320d1ad64736f6c63430008040033",
  "linkReferences": {},
  "deployedLinkReferences": {}
}